{
  "_format": "hh-sol-artifact-1",
  "contractName": "ChessGame",
  "sourceName": "contracts/ChessGame.sol",
  "abi": [
    {
      "anonymous": false,
      "inputs": [
        {
          "indexed": true,
          "internalType": "bytes32",
          "name": "gameId",
          "type": "bytes32"
        },
        {
          "indexed": true,
          "internalType": "address",
          "name": "player1",
          "type": "address"
        },
        {
          "indexed": true,
          "internalType": "address",
          "name": "player2",
          "type": "address"
        }
      ],
      "name": "GameCreated",
      "type": "event"
    },
    {
      "anonymous": false,
      "inputs": [
        {
          "indexed": true,
          "internalType": "bytes32",
          "name": "gameId",
          "type": "bytes32"
        },
        {
          "indexed": true,
          "internalType": "address",
          "name": "winner",
          "type": "address"
        }
      ],
      "name": "GameFinished",
      "type": "event"
    },
    {
      "anonymous": false,
      "inputs": [
        {
          "indexed": true,
          "internalType": "bytes32",
          "name": "gameId",
          "type": "bytes32"
        },
        {
          "indexed": true,
          "internalType": "address",
          "name": "player",
          "type": "address"
        },
        {
          "indexed": false,
          "internalType": "uint8",
          "name": "fromSquare",
          "type": "uint8"
        },
        {
          "indexed": false,
          "internalType": "uint8",
          "name": "toSquare",
          "type": "uint8"
        },
        {
          "indexed": false,
          "internalType": "uint8",
          "name": "promotion",
          "type": "uint8"
        }
      ],
      "name": "MoveSubmitted",
      "type": "event"
    },
    {
      "anonymous": false,
      "inputs": [
        {
          "indexed": true,
          "internalType": "bytes32",
          "name": "gameId",
          "type": "bytes32"
        },
        {
          "indexed": true,
          "internalType": "address",
          "name": "player2",
          "type": "address"
        }
      ],
      "name": "OpponentJoined",
      "type": "event"
    },
    {
      "inputs": [
        {
          "internalType": "address",
          "name": "opponentAddress",
          "type": "address"
        }
      ],
      "name": "createGame",
      "outputs": [
        {
          "internalType": "bytes32",
          "name": "",
          "type": "bytes32"
        }
      ],
      "stateMutability": "nonpayable",
      "type": "function"
    },
    {
      "inputs": [
        {
          "internalType": "bytes32",
          "name": "gameId",
          "type": "bytes32"
        },
        {
          "internalType": "address",
          "name": "winner",
          "type": "address"
        }
      ],
      "name": "finishGame",
      "outputs": [],
      "stateMutability": "nonpayable",
      "type": "function"
    },
    {
      "inputs": [
        {
          "internalType": "bytes32",
          "name": "",
          "type": "bytes32"
        }
      ],
      "name": "games",
      "outputs": [
        {
          "internalType": "address",
          "name": "player1",
          "type": "address"
        },
        {
          "internalType": "address",
          "name": "player2",
          "type": "address"
        },
        {
          "internalType": "string",
          "name": "fen",
          "type": "string"
        },
        {
          "internalType": "bool",
          "name": "isWhiteTurn",
          "type": "bool"
        },
        {
          "internalType": "enum ChessGame.GameStatus",
          "name": "status",
          "type": "uint8"
        },
        {
          "internalType": "address",
          "name": "winner",
          "type": "address"
        },
        {
          "internalType": "uint256",
          "name": "createdAt",
          "type": "uint256"
        },
        {
          "internalType": "uint256",
          "name": "lastMoveAt",
          "type": "uint256"
        },
        {
          "internalType": "uint256",
          "name": "moveCount",
          "type": "uint256"
        }
      ],
      "stateMutability": "view",
      "type": "function"
    },
    {
      "inputs": [
        {
          "internalType": "bytes32",
          "name": "gameId",
          "type": "bytes32"
        }
      ],
      "name": "getGame",
      "outputs": [
        {
          "components": [
            {
              "internalType": "address",
              "name": "player1",
              "type": "address"
            },
            {
              "internalType": "address",
              "name": "player2",
              "type": "address"
            },
            {
              "internalType": "string",
              "name": "fen",
              "type": "string"
            },
            {
              "internalType": "bool",
              "name": "isWhiteTurn",
              "type": "bool"
            },
            {
              "internalType": "enum ChessGame.GameStatus",
              "name": "status",
              "type": "uint8"
            },
            {
              "internalType": "address",
              "name": "winner",
              "type": "address"
            },
            {
              "internalType": "uint256",
              "name": "createdAt",
              "type": "uint256"
            },
            {
              "internalType": "uint256",
              "name": "lastMoveAt",
              "type": "uint256"
            },
            {
              "internalType": "uint256",
              "name": "moveCount",
              "type": "uint256"
            }
          ],
          "internalType": "struct ChessGame.Game",
          "name": "",
          "type": "tuple"
        }
      ],
      "stateMutability": "view",
      "type": "function"
    },
    {
      "inputs": [
        {
          "internalType": "address",
          "name": "player",
          "type": "address"
        }
      ],
      "name": "getPlayerGames",
      "outputs": [
        {
          "internalType": "bytes32[]",
          "name": "",
          "type": "bytes32[]"
        }
      ],
      "stateMutability": "view",
      "type": "function"
    },
    {
      "inputs": [
        {
          "internalType": "bytes32",
          "name": "gameId",
          "type": "bytes32"
        }
      ],
      "name": "joinGame",
      "outputs": [],
      "stateMutability": "nonpayable",
      "type": "function"
    },
    {
      "inputs": [
        {
          "internalType": "address",
          "name": "",
          "type": "address"
        },
        {
          "internalType": "uint256",
          "name": "",
          "type": "uint256"
        }
      ],
      "name": "playerGames",
      "outputs": [
        {
          "internalType": "bytes32",
          "name": "",
          "type": "bytes32"
        }
      ],
      "stateMutability": "view",
      "type": "function"
    },
    {
      "inputs": [
        {
          "internalType": "bytes32",
          "name": "gameId",
          "type": "bytes32"
        }
      ],
      "name": "resign",
      "outputs": [],
      "stateMutability": "nonpayable",
      "type": "function"
    },
    {
      "inputs": [
        {
          "internalType": "bytes32",
          "name": "gameId",
          "type": "bytes32"
        },
        {
          "internalType": "uint8",
          "name": "fromSquare",
          "type": "uint8"
        },
        {
          "internalType": "uint8",
          "name": "toSquare",
          "type": "uint8"
        },
        {
          "internalType": "uint8",
          "name": "promotion",
          "type": "uint8"
        },
        {
          "internalType": "string",
          "name": "newFen",
          "type": "string"
        }
      ],
      "name": "submitMove",
      "outputs": [],
      "stateMutability": "nonpayable",
      "type": "function"
    }
  ],
  "bytecode": "0x608060405234801561001057600080fd5b50611489806100206000396000f3fe608060405234801561001057600080fd5b50600436106100935760003560e01c80635a31613b116100665780635a31613b1461010657806373931bbf14610119578063bf47476614610139578063d2fa07511461014c578063f579f8821461015f57600080fd5b80630a5694c214610098578063129daf84146100be57806339b676cd146100de578063474d0b5a146100f3575b600080fd5b6100ab6100a6366004610e5e565b610187565b6040519081526020015b60405180910390f35b6100d16100cc366004610e88565b6101b8565b6040516100b59190610eaa565b6100f16100ec366004610eee565b610224565b005b6100ab610101366004610e88565b6103b1565b6100f1610114366004610f1a565b610623565b61012c610127366004610f1a565b610769565b6040516100b59190610fb1565b6100f1610147366004610f1a565b610910565b6100f161015a36600461107f565b610b3e565b61017261016d366004610f1a565b610d55565b6040516100b59998979695949392919061112c565b600160205281600052604060002081815481106101a357600080fd5b90600052602060002001600091509150505481565b6001600160a01b03811660009081526001602090815260409182902080548351818402810184019094528084526060939283018282801561021857602002820191906000526020600020905b815481526020019060010190808311610204575b50505050509050919050565b600082815260208190526040902060016003820154610100900460ff16600281111561025257610252610f79565b1461029a5760405162461bcd60e51b815260206004820152601360248201527247616d65206d7573742062652061637469766560681b60448201526064015b60405180910390fd5b80546001600160a01b03163314806102be575060018101546001600160a01b031633145b6102da5760405162461bcd60e51b81526004016102919061119b565b80546001600160a01b0383811691161480610304575060018101546001600160a01b038381169116145b8061031657506001600160a01b038216155b6103535760405162461bcd60e51b815260206004820152600e60248201526d24b73b30b634b2103bb4b73732b960911b6044820152606401610291565b6003810180546001600160a01b038416620100008102610100600160b01b0319909216919091176102001790915560405184907f6ac67f3cc345b3299c1a52aa817e376ae451718ba30d1b5cc3d94c740b59edd890600090a3505050565b6002546040516bffffffffffffffffffffffff193360601b1660208201526034810191909152426054820152600090819060740160408051601f19818403018152919052805160209091012060028054919250600061040f836111d2565b9190505550604051806101200160405280336001600160a01b03168152602001846001600160a01b0316815260200160405180606001604052806038815260200161141c603891398152600160208201526040016001600160a01b0385161561047957600161047c565b60005b600281111561048d5761048d610f79565b8152600060208083018290524260408085018290526060850191909152608090930182905284825281815290829020835181546001600160a01b03199081166001600160a01b0392831617835592850151600183018054909416911617909155908201516002820190610500908261129a565b50606082015160038201805491151560ff1983168117825560808501519261ff001990911661ffff199091161761010083600281111561054257610542610f79565b021790555060a082015160038201805462010000600160b01b031916620100006001600160a01b039384160217905560c0830151600483015560e08301516005830155610100909201516006909101553360009081526001602081815260408320805492830181558352909120018290558316156105e5576001600160a01b03831660009081526001602081815260408320805492830181558352909120018190555b6040516001600160a01b03841690339083907f34e2d83306a98aff5e4796375e70ce8ec62d7ef614bb17d77397761d06b93e5690600090a492915050565b600081815260208190526040902060016003820154610100900460ff16600281111561065157610651610f79565b146106945760405162461bcd60e51b815260206004820152601360248201527247616d65206d7573742062652061637469766560681b6044820152606401610291565b80546001600160a01b03163314806106b8575060018101546001600160a01b031633145b6106d45760405162461bcd60e51b81526004016102919061119b565b80546000906001600160a01b031633146106f85781546001600160a01b0316610707565b60018201546001600160a01b03165b6003830180546001600160a01b038316620100008102610100600160b01b031990921691909117610200179091556040519192509084907f6ac67f3cc345b3299c1a52aa817e376ae451718ba30d1b5cc3d94c740b59edd890600090a3505050565b6107c260408051610120810182526000808252602082018190526060928201839052918101829052906080820190815260200160006001600160a01b031681526020016000815260200160008152602001600081525090565b6000828152602081815260409182902082516101208101845281546001600160a01b03908116825260018301541692810192909252600281018054929391929184019161080e9061120f565b80601f016020809104026020016040519081016040528092919081815260200182805461083a9061120f565b80156108875780601f1061085c57610100808354040283529160200191610887565b820191906000526020600020905b81548152906001019060200180831161086a57829003601f168201915b5050509183525050600382015460ff808216151560208401526040909201916101009091041660028111156108be576108be610f79565b60028111156108cf576108cf610f79565b815260038201546201000090046001600160a01b03166020820152600482015460408201526005820154606082015260069091015460809091015292915050565b600081815260208190526040902080546001600160a01b031661096b5760405162461bcd60e51b815260206004820152601360248201527211d85b5948191bd95cc81b9bdd08195e1a5cdd606a1b6044820152606401610291565b60018101546001600160a01b0316156109c65760405162461bcd60e51b815260206004820152601c60248201527f47616d6520616c7265616479206861732074776f20706c6179657273000000006044820152606401610291565b8054336001600160a01b0390911603610a215760405162461bcd60e51b815260206004820152601960248201527f43616e6e6f74206a6f696e20796f7572206f776e2067616d65000000000000006044820152606401610291565b60006003820154610100900460ff166002811115610a4157610a41610f79565b14610a8e5760405162461bcd60e51b815260206004820181905260248201527f47616d65206973206e6f742077616974696e6720666f72206f70706f6e656e746044820152606401610291565b600180820180546001600160a01b0319163317905560038201805461ff0019166101008302179055503360008181526001602081815260408084208054938401815584529083209091018590555184917f533c52e9174ae97bab268500237648d59ba8781e6eea56c8a640e952938ee44f91a3805460405133916001600160a01b03169084907f34e2d83306a98aff5e4796375e70ce8ec62d7ef614bb17d77397761d06b93e5690600090a45050565b600086815260208190526040902060016003820154610100900460ff166002811115610b6c57610b6c610f79565b14610bae5760405162461bcd60e51b815260206004820152601260248201527147616d65206973206e6f742061637469766560701b6044820152606401610291565b80546001600160a01b0316610bfb5760405162461bcd60e51b815260206004820152601360248201527211d85b5948191bd95cc81b9bdd08195e1a5cdd606a1b6044820152606401610291565b80546000906001600160a01b031633148015610c1b5750600382015460ff165b80610c42575060018201546001600160a01b031633148015610c425750600382015460ff16155b905080610c815760405162461bcd60e51b815260206004820152600d60248201526c2737ba103cb7bab9103a3ab93760991b6044820152606401610291565b81546001600160a01b0316331480610ca5575060018201546001600160a01b031633145b610cc15760405162461bcd60e51b81526004016102919061119b565b60028201610cd084868361135a565b5060038201805460ff19811660ff90911615179055426005830155600682018054906000610cfd836111d2565b90915550506040805160ff89811682528881166020830152871681830152905133918a917f4be4b1933ee2d6ef088b339ebe1032a952d3d844d5fad98dea8590d0e8fe849e9181900360600190a35050505050505050565b6000602081905290815260409020805460018201546002830180546001600160a01b03938416949290931692610d8a9061120f565b80601f0160208091040260200160405190810160405280929190818152602001828054610db69061120f565b8015610e035780601f10610dd857610100808354040283529160200191610e03565b820191906000526020600020905b815481529060010190602001808311610de657829003601f168201915b50505050600383015460048401546005850154600690950154939460ff8084169561010085049091169450620100009093046001600160a01b03169289565b80356001600160a01b0381168114610e5957600080fd5b919050565b60008060408385031215610e7157600080fd5b610e7a83610e42565b946020939093013593505050565b600060208284031215610e9a57600080fd5b610ea382610e42565b9392505050565b6020808252825182820181905260009190848201906040850190845b81811015610ee257835183529284019291840191600101610ec6565b50909695505050505050565b60008060408385031215610f0157600080fd5b82359150610f1160208401610e42565b90509250929050565b600060208284031215610f2c57600080fd5b5035919050565b6000815180845260005b81811015610f5957602081850181015186830182015201610f3d565b506000602082860101526020601f19601f83011685010191505092915050565b634e487b7160e01b600052602160045260246000fd5b60038110610fad57634e487b7160e01b600052602160045260246000fd5b9052565b60208152610fcb6020820183516001600160a01b03169052565b60006020830151610fe760408401826001600160a01b03169052565b506040830151610120806060850152611004610140850183610f33565b91506060850151611019608086018215159052565b50608085015161102c60a0860182610f8f565b5060a08501516001600160a01b03811660c08601525060c085015160e085015260e0850151610100818187015280870151838701525050508091505092915050565b803560ff81168114610e5957600080fd5b60008060008060008060a0878903121561109857600080fd5b863595506110a86020880161106e565b94506110b66040880161106e565b93506110c46060880161106e565b9250608087013567ffffffffffffffff808211156110e157600080fd5b818901915089601f8301126110f557600080fd5b81358181111561110457600080fd5b8a602082850101111561111657600080fd5b6020830194508093505050509295509295509295565b6001600160a01b038a8116825289811660208301526101206040830181905260009161115a8483018c610f33565b92508915156060850152611171608085018a610f8f565b9690961660a083015260c082019490945260e0810192909252610100909101529695505050505050565b60208082526019908201527f4e6f74206120706c6179657220696e20746869732067616d6500000000000000604082015260600190565b6000600182016111f257634e487b7160e01b600052601160045260246000fd5b5060010190565b634e487b7160e01b600052604160045260246000fd5b600181811c9082168061122357607f821691505b60208210810361124357634e487b7160e01b600052602260045260246000fd5b50919050565b601f821115611295576000816000526020600020601f850160051c810160208610156112725750805b601f850160051c820191505b818110156112915782815560010161127e565b5050505b505050565b815167ffffffffffffffff8111156112b4576112b46111f9565b6112c8816112c2845461120f565b84611249565b602080601f8311600181146112fd57600084156112e55750858301515b600019600386901b1c1916600185901b178555611291565b600085815260208120601f198616915b8281101561132c5788860151825594840194600190910190840161130d565b508582101561134a5787850151600019600388901b60f8161c191681555b5050505050600190811b01905550565b67ffffffffffffffff831115611372576113726111f9565b61138683611380835461120f565b83611249565b6000601f8411600181146113ba57600085156113a25750838201355b600019600387901b1c1916600186901b178355611414565b600083815260209020601f19861690835b828110156113eb57868501358255602094850194600190920191016113cb565b50868210156114085760001960f88860031b161c19848701351681555b505060018560011b0183555b505050505056fe726e62716b626e722f70707070707070702f382f382f382f382f50505050505050502f524e42514b424e522077204b516b71202d20302031a2646970667358221220d7c096922a0d21ed4752c0c12092b1cd708a3f1e54bc1db38d9e1592c8e7ac9664736f6c63430008180033",
  "linkReferences": {},
  "deployedLinkReferences": {}
}